:020000040000FA
:0400000A9900C0DEBB
:10000000004000206D8E0100A98E0100AB8E010022
:1000100000000000000000000000000000000000E0
:10002000000000000000000000000000AD8E010094
:100030000000000000000000AF8E0100B18E010042
:10004000B38E0100252E0100B5950100B38E01008D
:10005000B38E0100000000006D8F0100B38E01001F
:1000600079D50000159B010029940100B38E010091
:10007000B38E0100B38E0100B38E0100B38E010078
:10008000B38E0100B38E0100B38E0100B38E010068
:10009000B38E0100D18B0100ED8A0100EDD6000086
:1000A000FDD60000B38E010000000000000000003B
:1000B0000000000000000000000000000000000040
:1000C00010B5064C2378002B07D1054B002B02D02E
:1000D000044800E000BF0123237010BD2001002070
:1000E00000000000089A0300044B10B5002B03D059
:1000F0000349044800E000BF10BDC04600000000F6
:1001000024010020089A0300402292029A1A924683
:100110007047C046174B002B00D1134B9D46FFF78D
:10012000F3FF00218B460F461348144A121A28F099
:10013000D9FD0E4B002B00D098470D4B002B00D063
:1001400098470020002104000D000D48002802D02F
:100150000C4800E000BF20F0E1F92000290028F061
:100160005BFB20F0F9F8C04600000800000000002A
:10017000000000000040002018010020D82F0020BF
:10018000000000000000000003000748DA070AD45E
:10019000064A07481A40062A05D0032205481A4095
:1001A000022A00D01868704744B20200070080FF9E
:1001B000ECCF020010BD020070B50D000400160067
:1001C0000AF086FC2800FFF7DFFF8368002B04D0CD
:1001D000320029002000984770BD42680249200083
:1001E00026F030F8F8E7C04662FF020010B50A00BA
:1001F00001000248FFF7E0FF10BDC046A4CC02009A
:10020000F7B5040008000E0026F063FA00280FD0AE
:100210006946300001AA11F07DFF009B002B07D03A
:100220002000154925F048FF009BDD1E002D09DA4E
:10023000310002222000FFF7BFFF20000F4925F008
:100240003BFFF7BD019AAF00D3195B68D25920007C
:100250000B4925F0F7FF019BDF19BA68002A05D189
:100260002000064925F028FF033DDFE7200005496F
:1002700025F0E8FFF8E7C04667FF0200F0710300D1
:100280008BFF0200A0FF020010B50400FFF77CFF07
:10029000054B0069984203D0431E9841C0B210BD7F
:1002A000200025F0B5FCFAE7CDEC000070B50500A4
:1002B0000C0001208D4203D0214B9D4201D1002032
:1002C00070BD9942FBD001231D4204D01942F6D1E2
:1002D0002B000D001C002A001A4B1A40062A05D0DC
:1002E000AA0711D1184A296891420DD12340062B43
:1002F00005D0A307E3D1144B22689A42DFD1210035
:10030000280005F039FBDBE72340062BD7D0A307F5
:1003100003D10D4B22689A42D1D02800FFF734FF59
:100320008369002BCBD0220029001B20984700288E
:10033000C5D0064BC01A43425841C0B2C0E7C046C0
:10034000B0940200070080FFECCF020050A502002D
:10035000104B10B5984219D00F4A0123904217D084
:10036000184201D0184110BD830706D10B4B02681B
:100370009A4202D10AF04EFAF5E720F0DEFE084973
:100380000200084811F024FE0EF0B2FF0020EAE758
:100390001800E8E748A5020050A5020044B2020098
:1003A000A9FF020090D6020010B5C30705D4830749
:1003B00006D1054B02689A4202D124F062F910BDC1
:1003C000FFF7C6FFFBE7C04644B20200104B70B512
:1003D0000D000124984203D100230B6022000AE0A3
:1003E0000C4B984201D10C60F8E7020022402042F9
:1003F00003D040100860100070BD8307FBD1064B8E
:1004000001689942F7D10AF005FA2860E6E7C0468C
:1004100048A5020050A5020044B20200184B10B5D6
:10042000984228D0174B984227D0C30703D54010D5
:100430001AF000FE10BD0323184206D1124A0168CB
:10044000914202D124F026F9F4E702001A40022A70
:1004500008D10E4A0240062A04D0FF22D205801895
:100460009843E7E720F069FE09490200094811F0C6
:10047000AFFD0EF03DFF0020DCE7FE208005D9E750
:1004800048A5020050A5020044B20200070080FF08
:10049000C1FF020090D6020010B583070CD103689B
:1004A0000A4CA34202D125F00DFD10BD084CA34219
:1004B00002D124F086FBF8E720F03FFE0549020058
:1004C000054811F085FD0EF013FFC046B0C90200CB
:1004D000C8B10200DBFF020090D6020013B50C0089
:1004E00001A9FFF7D9FF019BA34206D022000349CF
:1004F000034811F06DFD0EF0FBFE13BDFEFF020080
:1005000008D70200F7B506000D0014001F00D3073E
:100510000FD554100194019B002B01DA5B19019354
:10052000019B002F1BD0002B15DA002301930198AB
:10053000FEBD100001A9FFF749FF0028EBD1200004
:10054000756820F0FAFD2A0003000A490A4811F0F4
:100550003FFD0EF0CDFEAB42E9D90195E7E7002B58
:1005600001DBAB42E3D372680449054811F030FD6A
:10057000EFE7C0462B00030090D602004F000300B7
:1005800084D3020010B50400830710D10D4B02681C
:100590009A420CD10C4B0340062B06D1C00825F023
:1005A0005FFC43000120184310BD8068F9E720007C
:1005B000FFF7EAFD4369181EF6D021000120984795
:1005C000F2E7C046AC960200070080FF164B70B5FC
:1005D000040000209C4203D0144DAC4201D1012004
:1005E00070BD134B00209C42FAD0012326006010FE
:1005F0001E401C4215D12000FFF7C6FD4369002BA9
:1006000009D0210030009847002804D0401B434205
:100610005841C0B2E4E72000FFF7B4FF0028DED065
:100620000138431E9841F4E748A5020050A5020096
:10063000B094020010B50400FFF7A4FF002809D110
:10064000200020F07AFD04490200044811F0C0FCAB
:100650000EF04EFE10BDC0466500030090D60200AD
:1006600070B504000E001500FFF78EFD036A002B25
:1006700005D02A00310020009847002818D120001A
:100680000C4E002D08D120F058FD02000A49300020
:1006900011F09EFC0EF02CFE042D04D120F04DFD37
:1006A00006490200F3E720F048FD05490200EEE7A5
:1006B00070BDC04690D6020086000300B100030062
:1006C000D200030010B520F04FFD002802D10248EF
:1006D0000FF042FE10BDC046FF000300F0B587B02A
:1006E000002807D16B4B6C48196825F0E5FC6B4876
:1006F00007B0F0BD0C686A4B9C4265D10021080030
:1007000024F048FA002405000390664B5A680192D1
:10071000944219D3039F644E3578002D22D1634A49
:1007200003A901200BF056FF039805AA04A924F0A1
:1007300048FA049B03339B080193019B564EAB423E
:1007400020D130005A49D0E79B680193019AE30019
:100750009958002904D0042902D028000BF0DCFEAF
:100760000134D2E7300028F011FB0022C11E040042
:10077000300004F0F9FC0134010038000BF0CCFE2D
:100780003619C9E72F00059ABB00985805F02CF9D7
:100790000100300025F090FC019BFF18049B9F4254
:1007A0000CD212231C1A002C06DD013CEBD33000C6
:1007B000404925F081FCF8E71234F4E730003E4967
:1007C00025F07AFC0135B8E72000FFF7DDFC842333
:1007D00042689B009A4200D1646820000DF038FB0B
:1007E000061E00D083E72C4D3449280025F064FC18
:1007F00031002000FFF7FAFC200020F09EFC304979
:100800000200280025F01EFDA30732D123682D4ADF
:1008100093422BD1200025F020FD22F0F5FA00268E
:100820000400B04200D162E763689E4200D35EE7F5
:10083000A268F300D3181F68002F15D05B68224907
:100840002800019325F038FC00213800FFF7CEFC8A
:100850001E49280025F030FC00210198FFF7C6FC56
:100860002800154925F028FC0136DDE7184A934297
:1008700003D02000FFF788FC0400A06B002800D103
:1008800035E7830700D032E7124B02689A4200D066
:100890002DE7C2E714000020A4CC0200B0940200AF
:1008A00076140000ACCC02009D5B030024A502007E
:1008B0002401030056910300F07103004801030076
:1008C0005001030080CD0200559103006001030038
:1008D000B8BC0200ACA40200002803D0012807D055
:1008E000002070478B680448002BFAD10348F8E7D2
:1008F0008B685B001843F4E750A5020048A502008E
:10090000034B48600B60002308008B60CB6070478E
:100910009C8F02007FB504000122080001A9FFF7A7
:10092000D1FE00222179402006F0A4FE010005003E
:10093000029819F01DFA636806001A0A824218D25A
:10094000A368C1186943E06822F00BFD6368E060AA
:10095000DBB22A00A06863606843E36872430199D0
:10096000181828F0A3F9A36804489E19A66004B0DB
:1009700070BD121A1202DBB21343EAE7B094020010
:10098000F7B5FF27466804000191BE431DD1320030
:100990000179402006F06EFE636805003B40802729
:1009A000A1683F011F43083141436760E06822F0BE
:1009B000D8FC6368E0601A0AA368013A01336A430D
:1009C0005D433100401928F08DF92079019BA26820
:1009D000E16806F0FBFFA36803480133A360636886
:1009E000013BFF3B6360FEBDB0940200F8B50022FE
:1009F00006000D000100402006F03CFE070010201C
:100A000022F091FC084B0400012E00D0074B280077
:100A10002671236063687843DBB2A560636022F0CF
:100A200082FCE0602000F8BD34900200F88F0200E4
:100A300070B50500140086B0002A2ED003230E00E6
:100A400080681E4019422DD1214B0A689A4229D153
:100A500003AA11F0ADF8002802D11E480FF0AAFC3D
:100A6000042C1DD132002979402006F003FE049B9E
:100A700006000093039B28790193019A009B991A21
:100A8000FFF7B4FF0399049A0400521A72434E43CD
:100A9000E968C068891928F009F9200006B070BD1E
:100AA0003400FAE70A00002301002868FFF72AFD56
:100AB00002002879042C04D1E96806F04BFE0400FA
:100AC000EBE72300E96806F081FF034CE5E7C04649
:100AD00060A9020065010300B094020070B5060031
:100AE0000C0015008AB01B2800D172E007D8052839
:100AF00026D0122855D0002420000AB070BD1F282F
:100B0000F9D10122280007A920F02EFB00284DD0A2
:100B1000A30713D1394B22689A420FD1012204A9AD
:100B2000200020F03AFB0123079A00930599089BC7
:100B3000049821F015FF324C0028DDD1314CDBE761
:100B400004A90122200020F028FB280007A9012287
:100B5000FFF7B8FD069B002203936B464020197BEC
:100B600006F088FD06000100089819F001F9069BBF
:100B7000A16803936B4605004118187BFFF736FF09
:100B8000059B04001A000499C068039328F08EF8AE
:100B90002A000598E36872430799181828F086F828
:100BA000AAE711002000FFF7B5FEA5E7EB070DD47B
:100BB00003231D4203D1144A2968914206D02B40D9
:100BC000022BBBD1114A1540062DB7D010480FF0AB
:100BD000F1FB012204A9200020F0DFFA0122280005
:100BE00007A920F0C1FA0028A8D0089B3000009384
:100BF000059A079B049925F0E3FC9CE734900200DA
:100C000050A5020048A5020044B20200070080FF80
:100C1000B6030300F0B505000E0087B0012808D028
:100C20008B0726D10B68264A934202D0254A93426D
:100C30001FD10122300003A920F096FA002818D015
:100C400000222900402006F015FD0100070004984D
:100C500019F08EF8060001002800FFF7C7FE3200E9
:100C600004007A430399C06828F020F8200007B0F8
:100C7000F0BD3000FFF786FC071E00D0471039009A
:100C80002800FFF7B3FE0021040030000EF07AFDCB
:100C90000026009000980EF0D7FD031EE6D0002F2E
:100CA00004D119002000FFF76BFEF3E7721C0192DC
:100CB00028003200E16806F089FE019EEAE7C0469E
:100CC000AC9602003490020070B50E7904000D005D
:100CD000012E0DD1194925F0EFF933002000AA6843
:100CE000E96804F0A7F92000154925F0E5F970BD81
:100CF0003200144925F0A6FAAB68002BF3D020008F
:100D0000114925F0D9F90026AB68B34204D8200078
:100D10000E4925F0D1F9E6E7002E03D020000C495A
:100D200025F0CAF93200E968287906F013FD01229E
:100D300001002000FFF740FA0136E5E796010300C5
:100D400084000300A2010300AD0103007719030032
:100D5000B101030037B50C00110000221D00200076
:100D60000123009206F09CFE002C05D121000120F9
:100D7000FFF73CFE040016E02968CB0705D48B077B
:100D800013D10C4B0A689A420FD10800FFF7E0FA22
:100D9000010005000120FFF729FE2A0004000021C0
:100DA000C06827F09FFF20003EBD0120FFF732FF03
:100DB000E0E7C04644B20200F0B50E00002485B062
:100DC0001100070022003000039300940C4B06F042
:100DD00067FEB01C800022F0A6FA0500076046609E
:100DE000B44202D1280005B0F0BD039BA700D8593A
:100DF00000210EF0C7FC2B000833D8510134EFE777
:100E0000FFFF00000048704738910200F7B5CD1C85
:100E1000AD00019028000E00170022F084FA2A008D
:100E20000400064B86600360019B390043600C3A66
:100E30000C3027F03BFF2000FEBDC0469091020021
:100E4000F0B52F4C85B02700B43703972200FC3251
:100E5000536C2C498B4201D805B0F0BD043B536460
:100E60002200AC321668032500221B680132991853
:100E70008808305C29404900084128400228F5D004
:100E8000032503991B0109681201CB18D21802929D
:100E90001B4A02998B42D9D00F20196801422AD1EE
:100EA00019480068884226D81600B83636688E423F
:100EB00021D9091A080901901000AC30006889098D
:100EC0004618B446465C0198310028404000014174
:100ED000294001290FD12F00874038003043664652
:100EE00030701600FC36706C084FB84205D2011DF8
:100EF0007164019901600433CBE71000BC30F9E75D
:100F000000020020C0020020B402002040030020A4
:100F10000F23994370B505000E00081A412118F0FF
:100F200027FF0F4C02002300B0331860230021007C
:100F3000AC331D608301F31AB4310B602300280029
:100F4000B83300211E6027F0CDFE8023FC345B0205
:100F50000122A36400235242E3642265636570BDED
:100F600000020020A222034952008B5A01338B5207
:100F70007047C04600020020A222034952008B5A4B
:100F8000013B8B527047C04600020020A223034A57
:100F90005B00D05A431E9841C0B270470002002047
:100FA000F7B50024032500900191019B9C4200D1DC
:100FB000F7BD009AA300D2580F231A422AD1194B29
:100FC0001900B4310968914224D81800B83000687B
:100FD00090421FD9521A1900AC31096810099209C0
:100FE0008E188F5C01003A00294049000A41B4463E
:100FF0002A40012A0ED12E008E4031006646394328
:101000001F003170FC37796C074EB14206D20B1DC0
:101010007B640860FFF714FF0134C6E7BC331A6035
:10102000F8E7C0460002002040030020A22210B5CD
:1010300008485200835A0100013383520300002202
:10104000FC33BC310A60DA64034A27215A64FFF793
:10105000A7FF10BD00020020C0020020F8B5032643
:101060002E4C00252200BC321368AB4213D1022261
:101070001900032694462200B03212689200914271
:101080002AD323000022FC335A654532FF32A35A8B
:10109000013BA352F8BD23001560214AFC335A647A
:1010A0002300B0331B689B009D42D9D22200AC3292
:1010B0001268AB08D35C2A0032405200134133401F
:1010C000032B07D12200FC32536C191D51641D60A3
:1010D000FFF7B6FE0135E3E72000AC3000688A0870
:1010E0008718825C080015003040400005413540FB
:1010F000022D09D0032D0BD0012D07D133008340E1
:101100009A433A70012301E0002BF7D10131B2E795
:10111000634683409A433A700023F7E700020020B9
:10112000C0020020F7B5354A13001100B833B431BE
:1011300009681B685B1A1100B0321668036003224D
:101140000023AC3109681C000191944619004360EA
:101150008360C360036143618361B600019D8A08B7
:10116000AA5C65460D406D002A4165462A404568E7
:10117000012A2ED0022A2FD0002A04D184680133FC
:1011800001348460140001318E420DD0019D8A0823
:10119000AD5C62460A4052001541674662462A40ED
:1011A0003D4201D0012AD9D1012C19D1056901355F
:1011B00005618569A54200D284618E4201D0012A71
:1011C000CCD1C2689A4200D2C3608E420ED00023B6
:1011D000C4E701354560D5E7013545600134D2E704
:1011E000022CE6D1456901354561E2E743681B0100
:1011F000436083681B018360F7BDC0460002002086
:10120000F7B50F300309019302D100252800FEBD78
:10121000A223464A5B00D35A002BF6D14733FF3353
:10122000D35A5D425D41002B07D0404BFC33DA6C52
:101230001B6D9A4201D301F0C9F8002430213F20F0
:101240003A4A3A4BB0321268FC339446374A5B6DE7
:10125000AC3217689C4505D8002DD6D101F0B6F800
:101260000135EBE70326FA5C32422FD1019E0134AF
:10127000A6422CD89B001A1B501C012C04D12B4DCC
:10128000591CFC358908696503218C4601404900D9
:101290000E000121B14085087E5D0232314379554F
:1012A000224FAC37934233D2204B019AB4331D689E
:1012B0001E4B0001FC33D96C2D188C466244DA6455
:1012C00000212800220127F00DFD9FE700240C26B5
:1012D000324206D1019E0134A64203D89B0001335D
:1012E000C9E700240A4206D1019E0134A64203D870
:1012F0009B000233BFE70024824306D1019A0134E8
:10130000A24203D89B000333B5E700240133A1E7D1
:1013100061460226114049008E4031003E68950822
:10132000765D013231433E687155BBE70002002013
:10133000A22270B5154952008A5A002A24D10028E9
:1013400022D00A00B4321268801A0A00FC32536DAF
:1013500004098009984200D250650322AC31230071
:10136000160013405B009E400868A508435D0134E9
:10137000B34343550868A308C35C200010404000F5
:1013800003411340022BEAD070BDC046000200208A
:1013900003000F2230B51040134225D1134A11002B
:1013A000B431096899421ED81400B83424689C42AC
:1013B00019D95B1A190903240D00AC3212689B0974
:1013C000D35C25406D002B412340012B0BD1013014
:1013D0000B189D08555D23405B001D412B002340E9
:1013E000022BF4D0000130BD0020FCE700020020F9
:1013F000F0B585B005000F000192002807D101006B
:101400003800FFF7FDFE0600300005B0F0BD0029F2
:1014100003D1FFF78DFF3E00F6E70F220300002601
:1014200013401042F0D151491E000A00B432126834
:101430008242E9D80800B8300068A842E4D9AA1A64
:10144000100984460800AC3000689209845C009062
:10145000624603200240520014410440012CD3D1C3
:10146000A22252008A5A002ACED1B0310A683E0028
:101470009200029262460F363609511C029A91423E
:1014800017D200988A08825C032003920A00024067
:10149000039852001041020003200240022A02D1A8
:1014A00001340131EAE7002A03D10133E218B242E4
:1014B000F7D3B44201D12E00A6E7B44222D93100BD
:1014C0002300AC206344614484460A000326009351
:1014D000264B9C4410003700304040008740604657
:1014E00000689408005D0132B84367463F6838558C
:1014F00000988242EED1FC335A6D89089142DAD2CB
:101500005965D8E71B19B3421DD36346174AE31840
:10151000AC3261468919994207D8321B200100215B
:101520001201281827F0DEFBC5E703210227194026
:1015300049008F403900176898083F5C01333943F0
:1015400017683954E5E7019E002E00D15CE70021C1
:101550003800FFF755FE061E00D155E7290022018D
:1015600027F0A4FB2800FFF7E3FE4DE70002002070
:1015700010B58CB005A8FFF7D5FD079B0A4C059A5E
:10158000039300932000069B084924F05BFE089B10
:10159000200001930B9B099A0393009304490A9B33
:1015A00024F050FE0CB010BDA4CC02002F020300AA
:1015B00052020300F8B5434E434F3300B4333800B2
:1015C0001A68424924F03EFE00243300B0331B6801
:1015D0009B00A34223D93F2214422CD13200250084
:1015E000AC3210680321AA08825C294049000A41F4
:1015F00003210A4202D10135AB42F3D12A1B7F2AD3
:1016000012D938003249920924F01CFE2C003F23E5
:101610009C433300B0331B689B00A34204D83800BE
:101620002C4924F049FDF8BD2B4B220138002B49F1
:101630001A4024F007FE3200AC321268A308D35CD3
:101640000322224052001341032213403A32022B5C
:1016500031D03032032B2ED03F3A012B2BD1330027
:10166000B4331B682201D3581D4954228B4222D027
:101670001C49083A8B421ED01B49083A8B421AD0AB
:101680001A490F328B4216D019498B4213D019498F
:10169000123A8B420FD018498B420CD017490532B1
:1016A0008B4208D01649043A8B4204D015490B32BC
:1016B0008B4200D01B323800134924F0C3FD0134A3
:1016C00083E7C04600020020A4CC0200970203007A
:1016D000B2020300F0710300F0FF0F00CE0203001E
:1016E000B0C90200C8B10200ACA40200ECCF0200F5
:1016F000AC96020034900200F88F020010BD020088
:10170000E4CA020080CD0200A10B0300002313B540
:10171000044A046A09050093890C8A58A16B1FF0DA
:101720005DFE13BDCC910200F0B587B001931B782C
:1017300005000F0002922A2B07D183685B5C002B07
:1017400066D0A62B64D007B0F0BD1A00213A022A59
:101750002CD88468635C6018032B59D16B6804A98A
:10176000E4181FF005FF844205D1280004996F603A
:101770001FF062FEE7E70378032B49D105A91FF0AC
:10178000F7FE019B1B78212B04D1049B059A134380
:101790000493E8E7222B03D1049B059A5340F7E713
:1017A000232BE0D1059B049A1340F1E71A00243A59
:1017B000022A00D989E083685A5C5818032A27D185
:1017C0006A6804A99B1800931FF0D2FE0400009BD6
:1017D000A342CAD0A3786678A01C032B18D105A910
:1017E0001FF0C6FE0400372E3AD1059A1F2A0FDCDF
:1017F0004349049B114199420ADBC021090611416A
:101800008B4205DB93400493049A53005340DED58A
:101810006B68029CDE1B002300930098E409030020
:1018200001330093002CF8D133000134DB09FCD1E3
:10183000831C1A1939002800039323F0A3F805002C
:10184000019B029A1B7800991A33037001301FF034
:1018500048FD039B32002100E8181FF042FD72E7AB
:10186000392E08D1059B1F2B01DD1F230593049BF7
:10187000059A1341C7E72F2E03D1049B059A9B18A5
:10188000C1E7302E03D1049B059A9B1ABBE7312E8A
:1018900009D10599049802F027FF0028B8D1059BCB
:1018A000049A5343AFE7332EB2D00599352E06D1B3
:1018B0000029ADD0049820F0B9FF0490A4E70029D6
:1018C000A6D0049820F0C1FFF7E7272BA0D18368AA
:1018D00058188378032B9BD1447802301FF057FEB1
:1018E0002F2C01D1049040E7302C06D14042430018
:1018F0000490584000D438E78AE7C043F2E7C04676
:10190000FFFFFF3FF0B597B00990C020002560238E
:101910000AAC80006360160003912570A56021F079
:101920000FFD039BE06025616561A561E5612362B0
:10193000E562A8421AD1BF49BF4824F0C6FE002381
:10194000060013930D9821F01DFD002E00D1D1E16A
:10195000039A039900233000926B096810F0A6FBEC
:10196000039821F023FE30000DF0C2FC3822002E37
:1019700003D02A00022E00D13A220026AF4992005D
:101980005258039900962000896B33001FF026FD02
:10199000102021F0C8FC1021040022F02EFF0C9B27
:1019A0000AAD2A78002B00D181E1002AC3D1EA6870
:1019B000013BAB60DB00D318DA78A049920057589E
:1019C0001A689D881202120A0692D8887B780793BB
:1019D0000F23079A13400593002D20D00490302246
:1019E000079B1340102B1DD0202B59D0002E00D167
:1019F0002AE1059B022B00D00FE10023012D19D015
:101A0000079A691ED20704D5BA88120B012A00D1A1
:101A10006908012900D088E0002B0FD085E06368B9
:101A20000493DCE7002D07D10398BA1C4030059BD6
:101A3000AB4205D80126B2E7002EF5D10026AEE76D
:101A40006E00935B190B09038C46802149018C457C
:101A500013D106781B051B0D9E421FD121000AA839
:101A60001FF0F9FC0028E9D1039B40331B78052BBC
:101A700000D033E1724973485FE7059A6B1C9342CB
:101A800006D2049A069900920AA83A001FF0A6FC12
:101A9000BE1971880AA8FFF739FECFE70135C6E7FE
:101AA000002E0AD06B00DB5B1B0B032B44D1012102
:101AB000200022F0E1FE00230370059BAB423FD8DB
:101AC00080203B000026059A40015100C919994227
:101AD00067D1A368049A981800230793A3686268E3
:101AE0009A18904268D33A78052A01D00C2A00D17E
:101AF0000126402279780A405042424149B252427E
:101B00001640002900DA01260025049A0595981848
:101B10000895079B9D4256D1002E02D1089B012BB0
:101B200061D02000059922F05CFF3B002000069A5E
:101B30000499FFF7F9FD81E7012D00D87AE793E7D3
:101B40008021BB1C6E009B5B49011A0B12038A4269
:101B500025D1039ADBB2403212789A421BD1072A70
:101B600008D1039B996CD86C0EF0BEFC01002000DC
:101B70001FF02AFC002D09D17B787F2B06D90E9B04
:101B80002000591C07930E911FF056FC039806F095
:101B900013FD013591E7002D00D14BE764E76B1C85
:101BA0006FE75A88150B2D03854203D1D2B2062A5E
:101BB00000D9012602338AE7079B012101330793ED
:101BC0001FF0B2FB8AE7059A037801320592002BD9
:101BD00004D0089B013308930023059301211FF0D3
:101BE000A3FB013595E7A268049B944663441D005E
:101BF000079B9E4200D121E72B78002B07D1A368D9
:101C000001222000E91A22F0F3FE0136F0E7280055
:101C100001211FF089FB0500F7E7012D00D109E73D
:101C200001232A001A401D423FD0059A032A00D101
:101C3000E6E619E7D602030074D40200CC91020054
:101C4000FE02030048D3020001228021059B4901C6
:101C50002B4013405A00BA1852880892120B1203F4
:101C60008A4215D1039A0899403212780905090D64
:101C70008A420BD1002B04D0039806F09DFC01355D
:101C8000E2E721000AA81FF0E6FBF8E70135B0E61D
:101C9000049A069900920AA83A006B1C1FF09EFB5A
:101CA00008990AA8FFF732FD79E61300A8E6002A92
:101CB00000D040E6039B40331E78002E00D0D3E6D0
:101CC0006368002B00D1CFE62B692000591C1FF060
:101CD000B3FBA3686B62EB69AB6233E6022B01D105
:101CE0000949C8E60A3B09480949012B00D824E6FE
:101CF000084922E6039821F059FC099A13AB13CB4B
:101D000013C2099817B0F0BD1003030018D60200E3
:101D1000440303006B03030010B5FEF77FFB044987
:101D200018F07EFE18F032FA25F077F9014810BD60
:101D300000007A44B094020010B5FEF709FB0028B9
:101D400001DD25F06AF9014810BDC046B0940200DB
:101D500010B504000800FEF7FBFA64102018034CCD
:101D6000400020400124204310BDC046FEFFFF7FFD
:101D700010B5FEF7EDFA002801DD25F04AF901481B
:101D800010BDC046B094020010B525F05EF9034BBB
:101D9000400018400123184310BDC046FEFFFF7FDE
:101DA00010B525F04EF9034B4000184001231843AD
:101DB00010BDC046FEFFFF7F10B5024924F07CF93C
:101DC00010BDC0468303030010B50C00FEF7DCF91C
:101DD000006B00280ED0E30702D50368002B09D062
:101DE000A30702D54368002B04D0630706D5836898
:101DF000002B03D10249034823F0F4FF10BDC04675
:101E00008803030028D50200F0B50F008BB0040052
:101E1000012138680292FFF7D7FF0600012C21D17B
:101E20003B68012118000393FFF7CEFF8021802437
:101E300000270600490006A822F0DFFC089B64008A
:101E4000029305AB2200029903983568A847431C0A
:101E500024D105980B2800D0A5E0002F31D1574898
:101E60000BB0F0BD7868FEF773FA0500431CD7D0BD
:101E70000122337B0400010006A813427DD022F02A
:101E8000BCFC0026002C6ED0210006A822F0F4FC39
:101E9000011E1DD14A494B4823F0A4FF002810D051
:101EA0003F18844204D9029B241A1B180293C8E7E6
:101EB000802106A8490022F0CCFC80240290640016
:101EC000BFE7337B40480797DB0774D43F4872E095
:101ED00000230093220005AB38681FF0EBFB059B45
:101EE0000290002B0ED006A8210022F07AFD059862
:101EF0000B2858D1079B0293002B34D106A822F05F
:101F00009DFCACE7029B9C4225D8089B079C029352
:101F1000029A029B9157B44601229B5D002912DA76
:101F200019001F2092188143C0290CD019001038C5
:101F300001328143E02906D004329343F03B1A007A
:101F4000531E9A4104329619A64211D8013DA64269
:101F5000DED12C0096E7029B06A8E11A22F041FD93
:101F6000029B002BD1D1184806A903F0C7F877E7E8
:101F7000E443A4196419664684E722F04EFC029BF0
:101F80002A000093089905AB38681FF093FB059B66
:101F9000002B0AD006A822F051FC059B07480B2B0A
:101FA00000D15DE718000EF0F9F90122337B0790AC
:101FB000054813428AD006A9D7E7C046B09402006C
:101FC000A703030074D40200ECCF0200AC96020019
:101FD00030B50C0087B0012105002068FFF7F4FE42
:101FE0000222606803A9FEF76DFB049A022D06D950
:101FF000A068FEF7ADF9049A824200D902000023DE
:1020000003990093206802AB1FF054FB029A002A48
:1020100005D005480B2A05D010000EF0BFF90123AA
:102020004000184307B030BDB0940200F0B589B04D
:102030000191019B040001211868FFF7C5FE07000C
:10204000012C18D9019B5B685C10631C13D0210024
:1020500004A822F0D2FB631C03D0631E002C2FD0F7
:102060001C00012104A822F007FC061E0AD11B490E
:102070001B4823F0B7FE0124102104A822F0BDFB69
:102080006442E8E70100019803AB012200683D6863
:10209000A847431C0ED103980B2809D1059B019337
:1020A000012B09D104A822F0C9FB0E4809B0F0BDEC
:1020B0000EF074F900280CD1012104A822F091FC43
:1020C0003B7B0948DB0700D4084804A903F016F855
:1020D000ECE733780A2BBED1F2E7C046A703030032
:1020E00074D40200B0940200ECCF0200AC9602005F
:1020F000F0B51F0004000D00160085B00221FFF7A7
:1021000063FE320029002000009703AB1FF0D2FAD3
:10211000039A002A05D005480B2A05D010000EF0BE
:102120003DF901234000184305B0F0BDB094020012
:102130000023F0B5344E93B0040006A815000191B9
:10214000012733600DF0AEF82F40011E3ED108226A
:102150002B00134015421DD00200200023F050FB3D
:10216000040003200FF0ECFF200023F0EFFD01201E
:1021700040420FF0E5FF01240DF0B2F8002F3AD0F5
:102180002100224812F0AEF93C0001211F4812F054
:10219000A9F930E0EA0613D511206268A16821F0A0
:1021A000F8F9040021002668019A03A8FFF7AAFBAA
:1021B0006B0700223100DB0F03A801F0FDFDCFE724
:1021C000AB06EFD5200020F01CFBEAE701204042DF
:1021D0000FF0B6FF002F03D001210C4812F082F956
:1021E0000798FDF7D1FF0A490CF064FE041E05D0E4
:1021F0003468002FC9D1200013B0F0BD07990548FD
:10220000FDF7FEFFF5E7C04640010020B5030300DF
:1022100054D60200A4CC020010B586B02021802440
:1022200002A822F0EAFA64001E4824F0E9FE002326
:102230001D48039324F0E4FE12F03CF90128F3D08A
:1022400002280BD1194824F0DBFE02A822F0F6FA8E
:1022500001220020164B1A7006B010BD032802D1CF
:1022600000230393E8E7042804D0C1B202A822F0B7
:1022700022FBE1E70F4824F0C3FE039B0193002BF0
:1022800008D10A4824F0BCFE02A822F0D7FA802028
:102290004000E1E71122012102A8FFF749FF204297
:1022A000C5D0D9E7B7030300C86E0300601203006E
:1022B000EC000020D203030030B589B02021802536
:1022C00004A822F09AFA6D00384824F099FE3848A4
:1022D00024F096FE0024374904A8059422F017F94B
:1022E00001280AD1344824F08BFE04A822F0A6FA73
:1022F0002000324B1C7009B030BD022803D12E489B
:1023000024F07EFEE0E7032801D12B48E0E7042813
:1023100008D1294824F074FE04A822F08FFA802006
:102320004000E8E7052828D1254824F069FE0594F7
:1023300012F0C0F802ABC1B2D9710329E5D004296B
:102340000AD11D4824F05CFE0121162204A8FFF7E3
:10235000EFFE2842BED0CEE704A822F0ACFA02ABD2
:10236000DB790D2B03D1174824F04AFEE0E702ABDE
:102370000121D81D12F0B6F8DAE7059B0193002B76
:10238000A8D004A822F085FA05F026FF00280BD07B
:102390000A2104A822F08FFA0B4904A822F0B7F80A
:1023A0000328B2D00428ECD10021CEE7D5030300E6
:1023B000260403004C04030060120300EC0000201C
:1023C00051040300810403008804030000B58BB0AE
:1023D000FEF72CFE68461FF0D8F9054BD968091A9C
:1023E0008908FEF7DDFDFEF739FE0BB000BDC046E3
:1023F0000002002010B56722014B1FF005FB10BD45
:10240000331E020010B59722014B1FF0FDFA10BDDC
:102410007D360000F8B50F0011001A0000230400FB
:1024200085794669837143610E4B1FF0EDFAA3680D
:10243000002B15D1E18A002908D0A38A002B05D1F1
:10244000206B22F09BFF206B22F018FEA38A39003C
:102450002000E28A1FF002FA6B1E9D416661A571A1
:10246000F8BDC0469D32000010B54379C26A012B09
:1024700003D1100023F0C5F810BD0B00006B02491A
:1024800023F0E9F8F8E7C04690B202007FB50B7878
:1024900005000E004C1C002B0AD0032B0BD103A906
:1024A00030001FF065F803990400286B22F07EFDD0
:1024B000200004B070BD012B07D18C1C4978042981
:1024C000F6D0006B0AF0DCFDF2E7042B0BD14B7861
:1024D0008978006B0902194322F0B0FD30001FF02B
:1024E00082F80400E4E7052B15D14379042B04D0CE
:1024F0002649006B22F0AEFDF0E788784B780002A9
:10250000184303A923F0B6FC03992C6B02F044FE98
:1025100001002000EEE71A000A3A0F2A09D803A9A1
:1025200030001FF04EF9039904002800FFF79CFFCC
:10253000BEE7082B0CD103A930001FF00FF8039B56
:102540002A6A9B0004009958286B22F083FDAFE7AC
:1025500003AB02AA01A930001FF076F8040002992B
:10256000286B0AF041FD019B094A9B009B58210002
:102570002800039A9847AB68002B04D0EB68002B27
:1025800001D1029BEB60039C92E7C046B09402002D
:1025900020950200F7B506000192FFF777FF0427A8
:1025A0000400019B9C4200D1F7BDA11C300065785E
:1025B000FFF76CFF2F3DEDB204003900082D01D864
:1025C000024B595D306B22F0B7FEEAE79408030036
:1025D00010B54379C26A012B03D1100023F022F811
:1025E00010BD0B00006B024923F035F8F8E7C04638
:1025F000A0B2020010B54379C26A012B03D11000CA
:1026000023F010F810BD0B00006B024923F023F8F3
:10261000F8E7C04680B20200836870B50D00040080
:102620001100002B07D1044824F04FF82900A060C6
:1026300020001FF013FC70BD18D6020010B5024A2E
:10264000FFF7EAFF10BDC0468D040300F0B50D0092
:10265000C162002142712B7891B005920400A04A1A
:102660000161072B3FD1059B012B06D00200836B34
:1026700005991B68406B08329847AB6818000893AF
:102680001EF0B1FF63790890032B0FD140210D900C
:102690000DA81EF0C1FFA36B02009B680D99606B33
:1026A0009847A368E882002B00D0D6E008981EF077
:1026B0009AFF08900378002B52D00A3B0F2B4AD880
:1026C0000DA91FF07EF80D9B864A934213D001326C
:1026D00093420DD2844A93423BD00225834A9342CF
:1026E0000AD0834A08992000FFF796FF11B0F0BD89
:1026F0000325804AF3E7002508981EF074FF18218F
:10270000089008A81EF088FF089B07900693069B78
:10271000079A934226D16379012B15D9A36B29001F
:102720005B68606B98476379042B0DD10023E06AE6
:1027300003950293C18A626B01910093936805210E
:10274000D268006923F043F8A368002B00D084E02E
:10275000CCE70125D0E70100674A2000FFF75CFFC6
:102760000225C9E7069B08931B78222B04D1069803
:102770001EF039FF0690CAE71F2B01D05F4AB1E770
:10278000069809A91EF039FF03780600432BF5D1FE
:102790001EF029FF099B8342F0D1300009A91EF0E9
:1027A0002CFF037807000A3B0F2BE7D81EF01BFF16
:1027B000099B06008342E1D00378472BDED11EF04F
:1027C00012FF099B8342D9D10AA938001EF0F9FFF4
:1027D00030001EF00DFF9F210B900BA81EF01CFF78
:1027E00001000B981EF0F3FE0A9B454A0600934237
:1027F0001BD1012804D10B9803780A3B0F2B01D978
:10280000404A6FE72669731C2361059B012B21D089
:102810000DA91EF0D6FFA36B3100DB680D9A606B2B
:102820009847002816D1384A5CE7384A934219D1B4
:10283000012803D10B980378032B01D0344A51E7C8
:10284000059B012B06D0666B1EF0A1FE0100300037
:1028500023F00DFEA368002B89D0200008991FF0FB
:10286000FDFA43E72B4A934222D1012803D90B9862
:102870000378032B01D0284A34E7059B012BE9D0CC
:102880000CA91EF075FE01270B900B980378032B03
:1028900001D0224A26E70DA91EF06AFE01370B90EF
:1028A0000D9A0C99606B23F0E9FDBE42EDD1D1E7A2
:1028B000059B012BCED0032800D95FE70B9B1800A6
:1028C0000D931EF090FE0E901EF08DFEA36B0F90E8
:1028D0001F6932000A99606B0DABB847BAE7C04672
:1028E000AA040300970200000F0200005A02000031
:1028F000CE040300E2020000DB0403000305030032
:1029000072020000260503004205030002020000D7
:1029100052050300270200006E0503009305030023
:10292000F0B517000A0087B00493531E9A410C00BB
:1029300006000499380005921EF049FE251E0190FC
:1029400009D0237800253A2B05D102002900306BED
:1029500022F084FD2500019B0097013B0393059B1A
:102960000293009B049A93421DD1002D39D1019A04
:10297000059B944663441900306B22F063FD002CE4
:102980003CD1049B9F422AD0BD423AD128001EF080
:102990002FFE00220100300000F038F838001EF051
:1029A00022FE0700EDE7009B1B783A2B07D1002D94
:1029B00010D1039A0299306B22F050FD009D0098CF
:1029C0001EF011FE029B009001330293039B013B1A
:1029D0000393C6E730000C4A0099FFF71DFE07B0CD
:1029E000F0BD002CCDD0A54208D128001EF000FE7D
:1029F00000220100300000F009F8C2E700222100A7
:102A0000F8E700223900C6E7B5050300F0B5170066
:102A10000A78040013000A3B0D0085B00F2B0ED876
:102A200003A928001EF0CDFE20000399FB0703D464
:102A3000FFF7CEFD05B0F0BDFFF716FDFAE7192A46
:102A400005D86A4A29002000FFF7E6FDF2E71300E7
:102A50001A3B442A00D183E02A2B05DC062B08D040
:102A6000292B11D0624AEDE72B2B00D194E0972B54
:102A7000F8D1002F00D0B7E0280003A91EF0BDFD5B
:102A80000200039B00219BE0280002A91EF0B5FD77
:102A90000600022F03D001002000FFF7F7FC3000F2
:102AA0001EF0A1FD029906001EF081FE0028D9D17A
:102AB0003378A22B13D1300003A91EF09EFD06002F
:102AC00030001EF090FD039A0190904207D2022F31
:102AD00003D031002000FFF7D9FC019EF0E73378E6
:102AE000482B21D1022F06D1206B22F052FB206B04
:102AF00022F00EFB0EE030001EF07AFD01002000F7
:102B0000FFF7C4FC206B012FF2D122F016FB206BE3
:102B100022F0E6FA30001EF066FD02991EF047FE34
:102B2000002800D086E79DE7492B9BD130001EF09E
:102B30005FFD03A91EF045FE012F07D1206B22F097
:102B4000F2FA0399206B22F0A3FAE3E7022F02D1F5
:102B5000206B22F007FB0399206B22F0CCFAD9E717
:102B600003A928001EF049FD039906001EF01FFE70
:102B7000002800D076E7002F36D1350003A92800C1
:102B80001EF03BFD06001EF02EFD0378A92B1BD185
:102B900000231A00310013E0002F25D1280003A9DB
:102BA0001EF02BFD039905001EF001FE021E02D04F
:102BB0003B003A0066E72B78A62BDFD00300290004
:102BC0002000FFF7ADFE35E7AA2B05D103A91EF0C3
:102BD00014FD039B0200DDE7C12B00D142E71EF08C
:102BE00002FD320003004DE7024A2BE7CF05030048
:102BF000E705030002060300F0B5170085B00400E6
:102C000008000D001EF0EFFC390006001EF0CFFD9D
:102C1000019000281FD02379002B17D0E36A1E787B
:102C2000002E13D1FC2120004900FFF71DFC2900D4
:102C30002000FFF72BFC330032000121206B22F033
:102C40004BFC206B22F083FA05B0F0BD2900200078
:102C5000FFF71CFCF5E733786D2B1DD1290001220D
:102C60002000FFF7D3FE30001EF0C2FC4378182688
:102C70004E3BDBB2811C0A2B01D8234AD65C2000D4
:102C8000FFF704FC3100206B22F056FB02222900E2
:102C90002000FFF7BBFED7E76E2B2ED1300003A933
:102CA0001EF0ABFC06000700039BBB421FD101993D
:102CB0002000FFF7EBFB206B22F035FA0022290001
:102CC0002000FFF7A3FE019BB342BDD030001EF0F1
:102CD0008AFC019B0500834202D0206B22F023FA7C
:102CE000310000222000FFF791FE2E00EBE73800B4
:102CF0001EF079FC01970700D6E731002000FFF7AE
:102D0000C5FB019AC3E7C0469D080300F0B50B78E8
:102D10008DB00A3B0400019103920F2B00D900E112
:102D200008001EF060FC0378432B00D0F9E0019806
:102D30001EF059FC09A91EF060FC037842780A3B9A
:102D40001B021343AA229200934200D0E9E01EF036
:102D50004AFC03780500472B00D0E2E01EF088FC17
:102D6000002800D0DDE028001EF03DFC099B8342D6
:102D700000D0D6E028001EF03BFC9F210A900AA854
:102D80001EF04AFC01230A9D060028000B931EF04A
:102D90002AFC07000A90B04200D1B8E01EF023FCE4
:102DA0000A90B0420ED00378032B00D0B9E00BA9F3
:102DB0001EF0DEFB0B9B0A90002B00D1B1E0B0426D
:102DC00000D0AEE02B784533DBB2022B00D8A8E070
:102DD0003B784533DBB2022B00D8A2E0099B1800F8
:102DE00005931EF000FC039A0290904201D100234B
:102DF00002930B9B26690493A36926830793E38BB5
:102E00000693731C6383A38BE383331D23613B7899
:102E10000393032B03D039002000FFF737FB290071
:102E20002000FFF733FB206BF11C22F0C7F9B11C27
:102E3000206B22F087F8206B22F075F90022200029
:102E40000199FFF7E3FD05992000FFF71FFB206BB9
:102E5000711C22F077F80499206B22F0A7F8122158
:102E6000206B22F069FA206BF11C22F06BF8039BB7
:102E7000206B032B4ED022F060F9206B22F072F908
:102E8000049B1921206B002B00DA1A21002522F067
:102E900053FA0121206BB21C22F09CF9079BA3611D
:102EA000069BE383029BAB421BD0206B22F04FF9C1
:102EB000039B032B02D0206B22F049F902992000DA
:102EC000FFF7E4FA2569206B6B1C2900236122F0CF
:102ED00075F9039B206BD91E4B1E9941013121F0DE
:102EE00078FF3100206B22F02DF8206B22F02FF9B3
:102EF000039B032B02D0206B22F029F9029B002BAD
:102F000003D02900206B22F01DF80DB0F0BD2F007A
:102F1000294D57E722F007F939002000FFF7B6FAEC
:102F2000AEE7A36925690493E38B6F1C0293AB1C86
:102F30000593A38B0198E383204B67832B43238363
:102F4000EB1C23611EF04FFB01002000FFF79EFAEF
:102F500006000121206B22F08EF93900206B21F050
:102F6000F1FF206BA91C22F099F9002220000199A1
:102F7000FFF74CFD31002000FFF788FA0600206BB8
:102F800021F022FF002803D13900206B22F016F92E
:102F9000206BA91C21F0D6FF206B22F08BF9049B3B
:102FA000A361029BE383039BB342AAD031002000BC
:102FB000FFF76CFAA5E7C0467A0303000080FFFF25
:102FC000C36A70B51B780D0004001100072B06D0F2
:102FD000022B04D00021164AFFF71EFB70BD28000B
:102FE0001EF0E5FB061E07D00E21206B0AF048F804
:102FF000206B22F09FFAF1E72B78C42B12D1280026
:103000001EF0F6FA01002000FFF740FA3100206BB5
:1030100022F031F9206B0E210AF032F8206B22F0F9
:1030200098FADBE729002000FFF730FAE0E7C04616
:103030002E060300F0B589B005001F00059104922B
:103040000191002904D09F2105A81EF0E5FA019006
:1030500000231E00059C03930293009316E023783F
:10306000BB2B2ED1BA3B1E4206D0434A210028007A
:10307000FFF7D2FA09B0F0BD012320001E431EF075
:10308000B7FA029020001EF0AEFA0400019BA342A2
:10309000E5D1002E0BD0029B002B5CD1286B21F0D8
:1030A000EDFF039B002B5BD1286B21F0E7FF049B16
:1030B000286B002B59D033003900009A22F015FA02
:1030C000D8E7BC2B0BD1BA3B1E4201D02B4ACDE72F
:1030D000022320001E431EF08BFA0390D2E7BD2B83
:1030E00029D120001EF084FA04001EF07CFA037837
:1030F000C12B09D12800062221001EF015FD200059
:1031000001371EF070FABEE723780A3B0F2B01D976
:103110001B4AABE7200007A91EF053FB04000799E8
:10312000286B21F08BFF21002800FFF7AFF9009BEF
:103130000400013391E7002E01D0124A96E7009B6C
:10314000002B01D0104A91E721002800FFF79EF9DB
:10315000013704009AE728000299FFF797F9A0E7E2
:1031600028000399FFF792F9A1E733003900009A8C
:1031700022F0B2F97EE7C046470603005E06030070
:103180007606030097060300B2060300F0B589B087
:103190000400039103A83D211EF03EFAE36A029069
:1031A0005F7D002301930398029B984217D118007A
:1031B0001EF01EFA029B03901B7801003A002000CB
:1031C0001D2B5DD11EF05BFC0500019B5A1E019278
:1031D00059D229002000FFF7FBF909B0F0BD05A97D
:1031E0001EF00BFA6821039003A81EF015FA06A939
:1031F000050003981EF0E5FA069B06001A00CC2392
:103200005B009A4215D0019B200001330399019382
:10321000FFF73CF903900398A84228D128000599AC
:103220001EF0C5FA00280BD129002000FFF72EF967
:1032300006E0854207D800212000164AFFF7ECF986
:10324000059B0393AFE71EF0CEF98542F3D1300022
:1032500007A91EF0B6FA8522079B9200934204D07C
:103260000D4A9342E7D10427EAE70127E8E707A9D7
:103270001EF0A7FA07990390206B21F009FFCAE717
:103280001EF04FFEA0E7002301211A00206B22F060
:1032900023F99AE7D406030009020000F7B50A787B
:1032A0000F00130008215D3B8B43DBB20400002BB1
:1032B00002D101338371F7BD13005E3B8B43DBB258
:1032C000002BF8D013000A3B3E0000250F2B0CD931
:1032D0005C2A26D101A938001EF08FF906001EF0E5
:1032E00082F9019B834215D10025300001A91EF00F
:1032F00068FAA379002D02D02A78002A19D1002B70
:10330000D9D1E38A002BD6D0390020001D4AFFF71F
:1033100083F9D0E71EF067F9019B05008342E4D1F1
:10332000E2E738001EF064F906001EF05CF90500C3
:10333000DBE7002B1ED0A38A01339BB2A382012BB3
:1033400009D1E18A206B002911D022F017F8002161
:10335000206B22F02DF829002000FFF797F8206B52
:10336000019921F06BFE206B22F02EF8A3E721F0EB
:1033700085FEECE7E38A290001332000E382FFF7B2
:1033800085F898E7F2060300F0B504000F0006691F
:1033900087B00293731C0393B31C03613100006B6D
:1033A000150021F045FF20001EF013FA390020001F
:1033B000FFF76CF8206B21F083FF711C206B21F06C
:1033C000FDFE3100206B21F0BDFD206B22F0D1F815
:1033D0002669731C2361029B9D4218D1A38B206B2D
:1033E000013BA38321F03CFF206B22F0C7F8039937
:1033F000206B21F0A7FD0C9B002B03D019002000AF
:10340000FFF744F83100206B21F09CFD1BE0280001
:103410001EF0EEF8002305932369050001930133A4
:1034200023610378002B10D11EF0DDF81EF0DBF8CD
:10343000029B834224D0290020003B4AFFF7ECF88E
:10344000A38B013BA38307B0F0BD07008B2B07D1F3
:103450001EF0CEF807001EF0C6F805A91EF0B1F95F
:10346000206B21F060FE39002000FFF70FF82121CA
:10347000206B21F061FF0021019A206B21F0AAFE50
:1034800028001EF0B0F805990500002947D1206BEF
:1034900021F05DFE059F002F09D02769206B7B1C62
:1034A0003900236121F0D0FE20001EF092F929009E
:1034B0002000FEF7EBFF059B0500002B02D0206BE0
:1034C00021F0FEFE206B21F020FF059B002B19D080
:1034D0000E21206B09F0D4FD3900206B21F032FD64
:1034E0000E21206B09F0CCFD20000599FFF770F844
:1034F00020000599FFF77EF8A38B206B013BA38387
:1035000021F0AEFE3100206B21F058FE0199206BB6
:1035100021F018FD0121206B21F05BFC5BE720000E
:10352000FFF756F8B6E7C04620070300F0B585B0B0
:10353000019143790400012B07D1C36A0E001B7867
:10354000002B04D1184AFFF767F805B0F0BD6921D8
:1035500001A81EF061F800900198009B9842F4D0F9
:1035600003A91EF02EF90B23039F6B441A00019050
:103570003900E06A22F08FF96B46DB7A0500002BF8
:103580000DD03A000100E06A22F0B0F92B78074A2A
:10359000002BE1D131002000FFF73EF8DCE7037893
:1035A000042BD9D0024AF5E73F0703006407030064
:1035B00082070300F0B587B0039145790400012D1F
:1035C00009D1019103A869211EF026F80290039801
:1035D000029B984201D107B0F0BD05A90B271EF050
:1035E000F0F802AB059EFF1803903A003100E06A44
:1035F00022F051F93B78002B08D10378012B05D03C
:103600002000074A0199FFF707F8E0E7057031004D
:10361000E06A22F062F90028D9D00570D7E7C046E9
:10362000A307030010B5084B428B04009A4202D155
:10363000064AFEF7F1FFA28BE38B618B206BD21A57
:1036400009F042FD10BDC046FFFF0000C2070300A5
:1036500010B5084B028B04009A4202D1064AFEF7CD
:10366000DBFFA28BE38B218B206BD21A09F02CFDA0
:1036700010BDC046FFFF0000DA070300F7B50600E3
:103680000C0023781A000A3A0F2A08D801A9200052
:103690001EF097F830000199FEF7ACFFF7BD432B01
:1036A00044D1694620001DF0A8FF01003000FEF75C
:1036B000EDFE03780500A22B10D101A91DF09DFF9E
:1036C000050028001DF08FFF019B0700834205D0F5
:1036D00029003000FEF7DAFE3D00F2E72B78482B98
:1036E00016D128001DF084FF01003000FEF7CEFE49
:1036F0000500306B21F057FD280000991EF057F8A7
:103700000028CBD121003000204AFEF785FFC5E715
:10371000492BF7D128001DF06BFF01A91EF051F8CD
:1037200001990500306B21F027FDE5E7442BE9D135
:1037300020001DF09DFF0028E4D120001DF058FF5F
:1037400005001DF055FF040001003000FFF796FF53
:1037500020001DF048FF03780400A92B9ED0AA2B5F
:103760000ED101A91DF049FF019B0400834295D0B1
:1037700030002100FFF782FF20001DF034FFF3E747
:10378000C12B00D07DE72C00BCE7C046EF0703004B
:10379000C36A70B51B780D0004001100072B04D01C
:1037A00000210B4AFEF738FF70BD28001DF0FFFF17
:1037B000002807D00E21206B09F062FC206B21F05D
:1037C0009EFEF1E729002000FEF760FEF6E7C04606
:1037D00007080300F0B50D0004001100280085B0B3
:1037E0001DF0E5FF071E05D00021206B21F0E0FD54
:1037F00005B0F0BD2B784E2B0BD1206B012121F0B1
:10380000D7FD29002000FEF741FE206B21F0DCFDF2
:10381000EEE7B32B61D128001DF0EAFE05001DF094
:10382000E2FE02900378B62B4DD103A91DF0E5FE10
:10383000039B0290984203D09D2102A81DF0ECFE4C
:103840002B784E2B20D103990298266B1DF0BFFEDA
:10385000411C300021F0ACFD29002000FEF716FECF
:10386000206B21F0B1FD0127029E039B9E4210D1E7
:10387000002FBDD131000298246B1DF0A8FE411C21
:10388000200021F0ACFDB3E729002000FEF7FEFD8B
:10389000EAE73378310020000193FEF7F7FD019B42
:1038A0000600002F0BD04E2B05D00F4A2900200018
:1038B000FEF7B2FE9CE7206B21F086FDD5E74E2B8C
:1038C000D3D10A4AF2E72B7804224E2B00D00522EE
:1038D000290020001EF028F98AE729002000FEF7C1
:1038E000D5FD0121206BCCE721080300440803002B
:1038F000F7B50D00C16A0400097D022608003040BA
:10390000314205D0344A29002000FEF785FEF7BD7C
:103910002978019008000A380F281DD8280001A92D
:103920001DF04FFFA279E36A002A03D01A8B0132FF
:103930001A8302E0DA8A0132DA820126019900292B
:10394000E5D06B46DF1C3A00E06A21F0A4FF3B782B
:10395000002B3CD1214AD6E71A32914204D12800EB
:103960001DF046FE01A9DBE71A33994223D1A37962
:10397000002BC7D101272800A7711DF079FE03266F
:103980000028DBD128001DF033FE0378E26A0A3BF1
:103990000F2B09D82800137D1F4317751DF028FE33
:1039A00001A91DF00EFFC9E7137D28001F431775FD
:1039B0001DF01EFEF2E728001DF01AFE01A91DF001
:1039C00000FFE36A1A7D16431E750526B6E702233B
:1039D000467003709BE7C0466B0303006308030057
:1039E000F0B585B005000E000192FEF74FFD03789B
:1039F0000400A22B03D101A91DF0FFFD0400EB6A16
:103A00001B78072B00D070E0337872780A3B1B02DA
:103A10001343504A934268D12378472B65D1200045
:103A20001DF026FE002860D0F02128004900FEF796
:103A30001BFD0121EA6A936A928C002A06D12100BB
:103A40002800454AFEF7E8FD05B0F0BD5878084269
:103A500011D028005968FEF707FD200001991DF0DC
:103A6000B6FD02280ADC0023286B1A00022121F08F
:103A700033FD200036E0013A0833DEE720001DF078
:103A8000B2FD0378492BEED120001DF0ACFD1DF0F6
:103A9000AAFD0378472BE6D120001DF0A4FD070006
:103AA0001DF0A1FD060038001DF0A2FD03A91DF0C8
:103AB00088FE03990122286B21F0F6FA30001DF0F0
:103AC000D7FD0021884203D130001DF091FD010097
:103AD000002301222800FFF7ADFA20001DF083FD2E
:103AE0001DF081FD1DF07FFD0400019BA342ABD0C2
:103AF00020001DF078FD019B0600834224D023782E
:103B0000492B21D10378472B1ED120001DF070FDD9
:103B1000070030001DF0ACFD0024A04203D13000AE
:103B20001DF066FD040003A938001DF04AFE0022C6
:103B30000399286B21F0B8FA280000230122210004
:103B4000FFF778FA3000CDE721002800FEF79EFC51
:103B5000CAE7C046CE0200007C080300F0B50D00A5
:103B60000026040042711100C5622A00066187B078
:103B7000006B09F09FF96279012A01D1EE832E844E
:103B8000AE683378542B0AD130001DF031FD0100AE
:103B90002000FEF77BFC206B21F0B1FC2AE02B78A3
:103BA000002B08D131002000FEF770FC0E21206BA5
:103BB00009F066FAEFE7072B21D130001DF013FD65
:103BC00063790500012B07D100230100A371402276
:103BD00020005F4B1DF018FF28001DF004FD1DF0B4
:103BE00002FD01002000FEF751FC206B21F0ECF8F3
:103BF0000028DBD0206B21F0B7F807B0F0BD022B16
:103C000017D1012A07D100233100A3712000514BA5
:103C100047321DF0F9FE30001DF0E5FC01002000E8
:103C2000FEF734FC2B7D5B07B5D5206B21F08FFAB6
:103C3000BCE7033B032B50D830001DF0D4FC05A992
:103C40001DF0DBFC1DF0CFFC67790390012F09D13B
:103C50000B2202ABD2183900E06A21F01CFE0223CD
:103C60000370EF822B78032B20D10021206B21F0F1
:103C700092FB2B78062B27D1206B21F0FFF9012135
:103C80002000FEF7F1FB206B21F0F8F9206B21F00A
:103C9000F5F9002320000093059A330003991EF0E4
:103CA000E9FB2B78062B00D075E77FE7042B04D1C6
:103CB0000021206B21F07CFBDBE7052BD9D1002113
:103CC000206B21F08CFBD4E720000121FEF7CCFB18
:103CD0000121206B21F0CFFADBE7012A07D1F02187
:103CE000280005AA490021F0D6FD0223037005A98A
:103CF000A8681DF066FDF4212000FF31FEF7B4FB3B
:103D0000F92120004900FEF763FCE989206B21F0CE
:103D100095F9F8212000FF31FEF75AFCA8681DF044
:103D200062FC1DF060FC01002000FEF7AFFBF021FB
:103D30002800490021F09FFD0378022B00D135E7D0
:103D4000F02142884900206B21F051F823E7C0465A
:103D5000EF210200FB210200F8B5164B0400A83346
:103D60001B681500002B24D1076901227B1C03610D
:103D70003B001EF004FBE02106004900206B21F00F
:103D800063F8290030001DF012FD051E09D1310035
:103D90002000FEF77BFB2B002A000121206B21F085
:103DA0009BFB0121206B21F0B7FB3900206B21F038
:103DB000C9F8F8BD00020020F0B59DB00F00150055
:103DC0000021382206900EA81E0024F08BFF069BCF
:103DD0000DAC5B680D970393236201235B42139341
:103DE000069B267118681DF0FEFB1DF0D0FB60627B
:103DF00080001FF0AAFA0022A06200950025069B11
:103E000011001B6820001DF000FD20F097FF012726
:103E10002B00039020630495626A0892954202D2B7
:103E2000A268002A26D0002B42D101260593089BC8
:103E3000059A934202D00F9A002A3CD00499039825
:103E400020F081FF0025169A0F9B0592954200D322
:103E50001BE1002B00D1D7E0189B0DA899681DF03D
:103E6000FDFF189B109A0493DB890D990F980EF0B3
:103E70001DF90DE1A16AAA005658002E13D032692F
:103E8000002A10D121F088FC737D30613A003100A6
:103E90002000042B09D1FEF7D9FB2369049A9A422A
:103EA00000D204933B000135B6E7FFF757FEF4E775
:103EB00000231D00B0E70599179B8900CB58002B04
:103EC0002FD0197D9F8C314216D00224781E411CC0
:103ED00012D09D6AC10069184D78254225D0002A6C
:103EE0000AD00D00506884461068079011CD11C2A9
:103EF000079A0A6062464A60002199838F421BDC60
:103F00000022974238DC5A680792002A09D0002123
:103F1000928C0A920A000A9881423CDB00218A4274
:103F200068D1059B0133059381E7002A02D1012D59
:103F300000D10A000138CAE7986ACA0082181878C6
:103F4000012807D150680400F020400084420BD1C2
:103F50000131D3E71478012806D9002C04D116705A
:103F60005078304203D1F3E710780228F8D1988BCB
:103F7000441C9C835080EBE7986AD1004418415C54
:103F8000032906D16178314203D1998B61800131D7
:103F900099830132B5E70798CC00806A0519005D66
:103FA00009950338012816D8002012E09D6AC40044
:103FB000AC46A4442C5D042C0AD1099C64680B9483
:103FC00064460B9D6468A54202D16446628001325A
:103FD00001308742EADC01319DE79C6AC800251860
:103FE000205C042802D16878304202D068888018AA
:103FF000688001318F42F0DCD98A92B25118D9829F
:10400000998B52189A838CE7179B0593059AAB00FE
:104010009C58002C1DD0637D042B1CD11A9B05934A
:10402000002B04D10499159820F08DFB1A900023E1
:1040300019932C4B032221000DA81B93FEF706FBBE
:104040000F9B0593002B04D1042221000DA8FEF73D
:10405000FDFA0135F7E6039B022221000DA8199312
:10406000FFF77CFD0F9B0593002BF2D1032221006B
:104070000DA8FFF773FD0F9B0593002BE9D10422D8
:1040800021000DA8FFF76AFDE3E7002B00D0E3E66F
:10409000039820F060FE1A98002801D020F06AFBF7
:1040A000002406981DF0EEFA179B1B681D69169BED
:1040B000179803939C4207D31FF064F90F990029C6
:1040C0000AD008000BF014F9A3001858002801D0FA
:1040D00021F0C8FB0134EAE70A00280021F090FB38
:1040E0001DB0F0BDD0B0020080235B051869034B02
:1040F0001B7843438020C002C01A7047272F00203E
:1041000080235B051869034B1B7843438020C00262
:10411000C01A7047282F002070B5084DC4012B68C5
:104120000021181921F06AFC2868054B00197F301E
:1041300000781B788342F0D270BDC0464401002055
:10414000262F002010B5C3790400002B08D0064AA2
:10415000037981791068DB01C018013021F04EFC31
:104160000023237210BDC0464401002070B5F8241E
:104170008025A40223786D054D2B4CD12B6980201E
:10418000E41A2B69C002E41A2969001B15F0F0FD3E
:104190002B4B2C4918702B69E21852185D421540C0
:1041A000294B2A4A9B1A2A4A9B18802252051169D8
:1041B0009D4234D38020C002401B15F0D9FD254B11
:1041C00001211870641B244BE4111C70A1240025EC
:1041D000224AE4001160187821494D604B68002B99
:1041E000FCD01359DBB28342F7D21E4901330B7066
:1041F00001235360FFF778FF037805001A4CFD2B6D
:104200000FD180235B051869184BC009C018C00185
:104210002818206070BD80242B69E402AFE76D1878
:10422000C5E7FFF76DFF0378803DFD2B01D12560C9
:10423000F0E7FFF765FFFD2121F0E0FBF7E7C0465F
:10424000282F0020FF87FFFF18010020000000201A
:10425000149A0300272F0020262F002000D00040B2
:10426000FCD00040292F002044010020FFFFFF0167
:10427000F7B5254B254E1A78254B14001B7831686D
:104280000133E001405CFF2828D00134E4B29C42B5
:1042900000D101249442F4D1802300255B051B69E1
:1042A000DB0901933368E701DA19DB5D00925A42BA
:1042B00053410098ED1821F0B7FB002810D00023DF
:1042C00005E00099DA018A5C002A09D10133019ADC
:1042D0009342F6D13068C01921F09CFB2000FEBD4E
:1042E0000B4B01341B78E4B201339C4200D1012412
:1042F000054B1B78A342D5D1002D02D01EF031FA18
:10430000B7E7FF24EAE7C046292F00204401002038
:10431000262F002070B5837904005B18DBB20025DE
:104320007E2B02D0837100200CE08571002A19D009
:10433000FFF79EFF0600FF2805D12079FFF7ECFE6E
:104340001C20257270BD0C4D60792B68C0011818B7
:1043500031007F3021F052FBF0012E686179301876
:1043600021F04CFB044B62791B68D2019B187F3310
:104370001B786371D7E7C0464401002010B50F4B8E
:104380001A684379DB01D31819007F310978FF29B6
:1043900008D10179C90152185278FF2A0BD08179CE
:1043A000914208D0827901219B1800225C78FFF7A6
:1043B000B1FF200010BD01246442FAE7440100204F
:1043C000F7B506000D0001240E4B1B7801930E4B30
:1043D0001F68019BA34202D2FF242000FEBDE3011F
:1043E000F918FB5CFE2B09D18B78AB4206D12A0071
:1043F0003000033124F04CFC0028EED00134E4B24C
:10440000E7E7C046262F00204401002010B5054AEA
:1044100003791068DB01C01881780022033000F0B6
:10442000A3FE10BD44010020F0B585B006000D00CC
:1044300002920393782948D8FFF7C2FF029A03003B
:104440000400002A3CD0FF2801D0FFF765FEFFF7EB
:104450000FFF0400FF2803D11D491E4821F0C2FCB4
:104460001D4FC0013B68FE210190181821F0C6FACB
:104470003B68019AE9B29818023021F0BFFA386817
:10448000019B2A00C018310003300AF0F1F80C201B
:104490001EF049FF039A114B002A00D0104B036015
:1044A0000D4B04711B684471E4011C19A37802339D
:1044B0008371029BC37101230372039B437202E069
:1044C0000298FF2BE3D105B0F0BD0020FBE7C0460A
:1044D000A808030028D502004401002080A802009B
:1044E000D4A7020007B501A901F094FA0199FFF7DA
:1044F00067FFFF2803D10449044821F073FCFFF74C
:104500000BFE03480EBDC046BE08030028D50200BE
:10451000B0940200F7B50192027A05000091002ADA
:1045200002D120480BF052FDC479002C07D11E495E
:1045300002790968D201525C7E27002A05D109223E
:1045400001241A6064422000FEBD1749AB79086857
:104550006979FA1AC90141180E007F363678FF2EA4
:1045600009D12E79F60180194078FF2818D0C01A99
:10457000824200D902000198061B964200D916001B
:10458000002EE0D0009A01331019C918320024F02F
:104590008DFB002231002800FFF7BCFEA419D4E7F0
:1045A0000022E8E7CD08030044010020F7B501939D
:1045B000037A040015000091002B02D11A480BF079
:1045C00005FDC379002B07D0184A03791268DB0177
:1045D0009B5C2F00002B0AD10923019A136001254F
:1045E0006D422800FEBD009BBF1B9B190093002F4E
:1045F000F7D07E23A2799E1ABE4200D93E00607990
:104600000A4B01321B68C00180180099320018184B
:104610000AF02EF8012231002000FFF77BFE00286F
:10462000E1D0019B1860DAE7CD08030044010020C7
:10463000002170B5080020F0ADFA012405000C4BF4
:104640001B78A34201D2280070BD0A4AE301126818
:10465000D018D35CFE2B08D181780022033000F003
:1046600083FD0100280007F057FF0134E4B2E6E7BC
:10467000262F00204401002073B501A901F0CAF9DA
:104680000199FFF79DFEFF2803D10E490E4821F046
:10469000A9FB00257E260D4B1C68C301E318597841
:1046A0009B780233DBB2C201A2187F321078FF2858
:1046B00004D1C81A40191FF0A7FF76BDF31AED18F0
:1046C0000023F0E7BE08030028D5020044010020C3
:1046D0001FB5034A034B1EF01FFF05B000BDC046C7
:1046E0007D4300004541000070B506000D00002824
:1046F00014DD002907DD154815F0C4FB0124B04284
:1047000009DB002407E00100C020000615F0BAFB19
:104710000124A842F5DDE4B2200070BD002907DDC8
:10472000C020000615F0AEFB0124B042F3DCE8E740
:104730000024A042F0D00100044815F0A3FB01239F
:10474000A84200DC231CDCB2E6E7C046FFFFFF3FC7
:104750000379044AD35C002B00D18379D800024B43
:10476000181870472A2F00200096020010B5040088
:10477000FFF7EEFF22790368024903480DF028FC99
:104780000AF0B6FDEA08030008D70200002803D0AB
:1047900001210379014AD1547047C0462A2F0020D5
:1047A00010B5FFF7D5FF034B4068C01A431E984170
:1047B000C0B210BD6D47000070B505000C00FFF7DA
:1047C000C7FF0C4E030032002832904204D1320061
:1047D0001032002094420BD00020A34208D02800C1
:1047E0005B68984701202B79034AA41BE410D4543A
:1047F00070BDC046009602002A2F00200022104BF8
:1048000010491A6003001233FF3341185A701A70AE
:1048100004338B42FAD1010003000022093108332E
:10482000FF311A709A705A70DA7004338B42F8D1E3
:10483000C3237F229B00C254034B044A1A60704773
:10484000480100201103000004000020D2030300EF
:1048500070B5002140250D4C8B00C318FF335A7CE6
:104860007F2A12D0A25C0131C9B22A42F4D05A7D0B
:104870007F2AF1D0A25C7F2AEED917269E57DA7DD7
:10488000002EE9DD0132DA74E6E770BD8B09030022
:10489000F7B5002406002500AB00F318FF335A7C5F
:1048A0007F2A2ED09B7C6F1CE418E4B2FFB2EF2C61
:1048B00015D900240235230022003900300001946C
:1048C0000094EDB21EF00AF823007E222900300089
:1048D000019400941EF002F80135EDB2DCE77D2A68
:1048E000FAD8084B9B5C01221342F5D00024390012
:1048F00023003000019400947D321DF0EFFF3D0055
:10490000EAE7F7BDDC0903000300F7B500214C4AD4
:104910001333FF338218197004339A42FBD1FC23FE
:104920009C460025844463462A001B690093009B33
:104930009D4207D37F234432920013540120FEBDD1
:104940000D00F4E76346DF687C5D602C01D9203CF4
:10495000E4B2691C009EC9B200238E4204D07B5C85
:10496000602B01D9203BDBB20026232C21D1303B28
:10497000092B02D9334B344A0CE00235E9B2009CD2
:104980008C420AD8FF2BF5D8437053B2002BD7DAEC
:104990002C4B2E4A00201A60D1E77C5C2500303D6C
:1049A000092DEFD80A256B430131303BE318C9B21A
:1049B000E5E7F7B20197264FF75DA74211D1254FE2
:1049C000F75D2A2F0DD0BB420BD193000199C3187C
:1049D000FF3359744178013202351975D2B2E9B208
:1049E000D3E70136512EE4D100231A4D5E5DDFB2CC
:1049F0002A2E0CD1164E9E5DA64208D19300C318F4
:104A0000FF335F74447801321C75D2B2BDE70133C5
:104A1000512BEBD1104D493B2E7AA64208D0013DD7
:104A2000002B02D1074B0D4AB4E7013BDBB2F3E7A1
:104A3000002BF7D014004334A4000419A370A4E79A
:104A400012030000040000200E090300FC0803000C
:104A5000CA0A03001B0B03006C0B03001C090300B4
:104A600010B51130084A0949FF3003787F2B00D177
:104A700010BD02240457002C03DCCB5C43700430CF
:104A8000F3E7D35CFAE7C0467A0A03002A0A030078
:104A9000F0B50600002785B0BD007519FF356C7CA8
:104AA0007F2C01D105B0F0BD0222204B791C9C4621
:104AB0001B5DC9B213421FD001203A0003421DD131
:104AC0001B4B22181B1903935B78287DD2B20190EF
:104AD000E87C0234009030001DF000FF287D039B2D
:104AE0000190E87CB91CC9B200909B783000E2B21A
:104AF00003371DF0F3FEF9B20F00CDE70132D2B259
:104B0000130044339B009B5D002BF7D07F2B06D016
:104B10006246D25C1207EFD4243B012BECD9044B44
:104B2000621C1B1903935B78CFE7C0468B09030017
:104B30002A0A0300F0B50600002585B0AC00341940
:104B4000FF34637C002B03D10135EFB23D00F5E764
:104B50007F2B00D1DCE010216E4A6F1CD25CFFB2CB
:104B60000A420BD14E2B20D118220D21E37C617417
:104B7000217D00930023019139003FE0E37C217DFA
:104B80009206D20F019100933900002330001432B5
:104B90001DF0A4FE637C352B00D097E0637B5E4A5A
:104BA000D35C5B07D2D5102362E04F2B03D11B22CD
:104BB000DBE71C22D9E7502BFBD052B2002A21DAC6
:104BC000E27C002A1ED03A0044329200925D002A14
:104BD00018D1A91CC9B28A00B218FF32507C0392C6
:104BE0007F280FD04B4A105C7F280BD9039AD27CC8
:104BF000002A07D000231F220193009330001DF0EC
:104C00006DFEA3E7172B08D0182B33D1637B414AE5
:104C1000D35C7F2B9AD913232AE0637B013DEDB24D
:104C2000452B1BD11B3B63732A0043329200394B47
:104C3000925D9A5C7F2A89D90135EDB2AD00751974
:104C4000FF356A7C002A59D09B5C7F2B00D87DE71A
:104C5000EB7C002B00D079E71E3309E0392B01D122
:104C60000D3BE0E72B4AD35C7F2B00D86EE7122385
:104C700063746BE7202B05D1637B3C2B00D065E789
:104C8000163BF5E7482B14D1637D7F2B02D14B23D4
:104C9000637403E01F4AD35C9B06F8D5637C1D4A0E
:104CA000D25CD20700D475E7627B202A20D10C3B6E
:104CB000DEE73C2BF2D1637D7F2B00D146E7154A1E
:104CC000D35C9B0600D541E73F23D1E72A2B06D1D1
:104CD000237D2B220193E37C009300234CE72C2BB4
:104CE00006D1237D2D220193E37C0093002343E72B
:104CF000452B99D0392B00D028E795E76A7D7F2A8C
:104D000000D123E79B5C7F2B00D81FE71E23AFE772
:104D100005B0F0BD8B090300DC090300F0B50024E9
:104D200085B00190E3B2019A44339B009B5CE5B2ED
:104D30007F2B32D05C4EF35CDB072CD56A1ED2B2DF
:104D4000019B443292009A182B00584F013BDBB272
:104D5000002B23D011787F2903D0795C043A7F2976
:104D6000F4D901999A008A18FF32517C7F290ED01C
:104D70002027705C384204D04C48415C042001423A
:104D800005D0917C48088446013161449174013317
:104D9000DBB2AB42E5D10134C4E70023022712E0C5
:104DA000730708D4F3070DD5029AFF32937CD90814
:104DB0005B1A937406E0039B9B7B9A080133D3181C
:104DC000039A9373634601999A008A181400FF347A
:104DD000617C02927F2964D0344A5E1CF0B2565640
:104DE0008446555C002E1EDA810001984126411848
:104DF000FF314D7C03917F2D00D0565D505D010049
:104E000040200142CCD1123D012DDBD80233DBB270
:104E1000019944339B005B5CD35C0342D2D0A37CFA
:104E2000013BA374CEE708201F4E715C01420FD0F6
:104E3000634601999B00CB18FF33597C7F29C1D071
:104E4000525C3A42BED006229A74013A9A73B9E78C
:104E50003D421CD00133DBB21A000199443292006A
:104E6000525C002AF6D07F2AACD010498A5C3A42C4
:104E7000A8D0019A9B00D318FF339A7C52080132C4
:104E80009A74029AFF32937C5B08013391E71023F6
:104E9000194297D0637BD35C3B4293D0A37C023B07
:104EA000BFE705B0F0BDC046DC0903008B09030075
:104EB00070B50400FFF7A2FC2000FFF725FD2300DA
:104EC0000022FC33DA601A61904226D02500224E7F
:104ED00011353368FF35934203D029001F4802F093
:104EE0006FFE2000FFF726FE2000FFF7B1FC200038
:104EF000FFF7B6FD2000FFF711FF2000FFF7C8FD08
:104F0000C4222B009200A1181A78502A06D97F2AB1
:104F100007D00020124B134A1A6070BD04338B4235
:104F2000F2D13368002B02D00F481BF0A7FB200002
:104F3000FFF7AEFC3368002B03D029000B4802F0CA
:104F40003FFE20001DF09EFC054B0949186823F028
:104F500013FF43425841E0E73C01002033090300BE
:104F600004000020420903006809030078090300D7
:104F7000D2030300032130B50400030001220C40DA
:104F8000084204D109491D6810008D420CD0190057
:104F900001201140134207D10800002C04D11868E9
:104FA000034BC01A4342584130BDC04658A50200C9
:104FB00044B2020010B50400FFF7DCFF030001203B
:104FC000002B0AD1032218002240022A05D10348EF
:104FD0000440063C2000431E984110BD070080FF9E
:104FE000044B88600B60044B08004B600023CB60CF
:104FF0007047C04660960200E92B020010B5FBF72F
:10500000C3F8084B42680848D31859424B41B021B5
:105010005B428B4305495B1805490CF0D9FF0AF048
:1050200067F9C04639FDFFFF90D60200C7020000B5
:10503000750B0300F7B504000D00019301208B18D8
:105040000A0000210093009B934212D827260029D2
:1050500000D0053E224F32003900200021F0F2F846
:10506000009B9D4214D332003900200021F0EAF861
:10507000F7BD1378272B08D0223B5E427341DBB289
:105080000132002BDFD02726E4E700230100F7E7F9
:105090002A78B24205D132001249200021F0D2F81C
:1050A0001AE011495C2A14D01F2A09D97F2A15D089
:1050B000019B002B02D053B2002B0FDB3900ECE731
:1050C0000A490A2A05D00A490D2A02D0092A05D11F
:1050D0000849200020F0F0FF0135C1E70649DCE770
:1050E000A10B0300A00B0300A40B0300A70B0300FC
:1050F000AA0B0300AD0B0300B00B0300194B70B5F6
:1051000006000C0098420FD14968A0680BF0B6F970
:10511000051E09D020001FF091FB00230620ED00A2
:1051200023600543280070BD10201EF0FCF8616864
:10513000050081600660A0680BF082F96368686012
:10514000591C2368994208D1A368EB600023EA68E0
:10515000A9685354A3602360E4E7A0681EF001F936
:10516000E860F3E7ECCF020070B504000D00002A00
:1051700005D00BF0B9F9C3000620184370BD0BF041
:105180007DF90028F7D12A00210002481DF007FC14
:10519000F4E7C046ECCF020010B50A000100024857
:1051A0001DF0FDFB10BDC046AC960200094B10B5CA
:1051B0000340062B01D1C00810BD830708D1064B60
:1051C00002689A4204D18168C0680BF08DF9F3E758
:1051D000FFF714FF070080FFECCF0200064B10B56D
:1051E0000340062B03D1C00820F044FE10BD8368A5
:1051F000C0680B60FAE7C046070080FFF0B50D00FD
:10520000002789B0110006001C00280003233A0083
:10521000009702F045FC0E20BD420FD0012D0FD1AA
:10522000102102AA04A807F027F9216802A83A0071
:10523000FAF7C2FF300004A9FFF760FF09B0F0BD24
:105240002068830722D1164B02689A421ED104A916
:10525000FFF7C4FF134B050020680340062B13D152
:10526000C00820F0F8FD0400002C04D128000499A7
:105270000BF0E6F804001020049F1EF054F80660BE
:105280008760C5604460D9E74468EDE704A901225E
:10529000FBF718FA002205990498FFF765FFCDE7A0
:1052A000AC960200070080FFF0B58DB004000391BA
:1052B000FAF76AFF04A906002000FFF78FFF039B9F
:1052C00001902F489A0705D11B6883420AD02D4AC6
:1052D000934207D0C368002202930121029C03ABD2
:1052E000A04703900024039806AA05A9FBF7D4F869
:1052F0002500059BA3420ED82900002508A81FF011
:105300008CFA0A9C059BAB4221D8300008A9FFF714
:10531000F5FE0DB0F0BD069BA700D859FAF734FF93
:10532000864202D018480BF017F8002C01D0049BDD
:10533000ED18069BD859154B0340062B05D1C00824
:1053400020F08EFD2D180134D3E78068FAE7002D98
:1053500006D02000049A019923F0A8FC049BE418CD
:10536000069AAB00985807A9FFF738FF079A010083
:10537000200023F09BFC079B0135E418C2E7C046E0
:10538000C8B10200B0C90200B70B0300070080FFDC
:10539000F0B58BB0049008680C0006920793FAF7FA
:1053A000F3FE06006068FAF7EFFE864202D06068FE
:1053B000FFF724FE08A92068FFF710FF050009A9E0
:1053C0006068FFF70BFF089A2F00AB180393049B4C
:1053D0000590022B19D9A3681D498B4206D00121E3
:1053E0003000009129000CF019FB0700049B032BEF
:1053F0000BD0E368164A934207D00122290000929D
:105400003000089A0CF00AFB0390039B3800D91B6C
:10541000069B059A0093099B1DF0A2FA011E07D175
:105420000120079B4042002B0BD00A480AF0CEFD1A
:10543000094B9E4207D1280020F0A8FA4100012024
:1054400008430BB0F0BD401B01214000F8E7C04607
:10545000B0940200FC0B0300ECCF0200F0B587B063
:10546000039008680D00FAF78FFE04A9070028686A
:10547000FFF7B4FE05A904006868FFF7AFFE039BC1
:1054800006002000022B07D90123210000933800D9
:10549000AB68049A0CF0C2FA059A041B0499A4188C
:1054A000064B8C4206D8310023F0F2FB034B002858
:1054B00000D1034B180007B0F0BDC04648A502005C
:1054C00050A5020073B50D00060069462868FFF775
:1054D00085FE01A904006868FFF780FE0100022E26
:1054E00002D908480AF066FF019A0098064D8242E8
:1054F00006D8801A201823F0CBFB002800D1034DDA
:10550000280076BD100C030048A5020050A502003B
:10551000F0B58FB0079010680C001600FAF734FE53
:105520000690012C31D07068FAF72EFE069B83425C
:1055300002D07068FFF762FD70680DA9FFF74EFE9C
:105540000D9B0890099330680DA9FFF747FE0D9B4E
:105550000B900493079B012B1CD1049B5D1E012320
:105560005B420A9300242700049B03940593059B48
:10557000002B13D1039B002B23D1214B069A0E2025
:105580009A4200D01F480FB0F0BD072309931E4B6D
:105590000893D8E7012300250A93E3E70B9B0999B9
:1055A0005A190123089800931DF0DAF9002816D142
:1055B000039B002B19D1079B002B09D12F00049BC3
:1055C0005C1E049B0134E21B934212D13068DAE77F
:1055D000079B2C00012B0AD001232F0003930A9B69
:1055E000ED18059B013B0593C1E72C00F7E7039FEE
:1055F000E7E70B9B0698D9191DF0D1F9C3E7C04620
:10560000ECCF02009C96020013100300F0B589B0A5
:10561000049008680D00FAF7B7FD07006868FAF70C
:10562000B3FD874202D06868FFF7E8FC06A9286846
:10563000FFF7D4FD060007A96868FFF7CFFD069ABB
:105640003400B3180393049B0590022B19D9AB685F
:105650001D498B4206D001213800009131000CF029
:10566000DDF90400049B032B0BD0EB68164A934230
:1056700007D00122310000923800069A0CF0CEF9D2
:1056800003900025079BAB4212D1039B2000191BFE
:1056900020F08BF9013045000120284309B0F0BD0E
:1056A0002000059923F0F4FA002808D101353400D0
:1056B000079A039BA6189E42F2D96D00ECE72000E2
:1056C00020F05BF90600F2E7B094020010B501008B
:1056D00001481DF054FA10BDCB59020010B501006D
:1056E00001481DF04CFA10BDDD590200F7B5060067
:1056F000080001A9FFF772FD019B0700002B01D1F3
:105700001248FEBD124B9E420DD0124B00249E4209
:105710000AD0385DB0470028F2D0019B0134A34283
:10572000F7D80D48EDE700242500385D08F01CFF90
:10573000002803D0385DB047051EE1D0019B01343D
:10574000A342F2D8002DECD1DAE7C04648A502000A
:10575000D1E50000E9E5000050A5020010B5010008
:105760000148FFF7C3FF10BD51E5000010B501006F
:105770000148FFF7BBFF10BD69E5000010B501004F
:105780000148FFF7B3FF10BD81E5000010B501002F
:105790000148FFF7ABFF10BDD1E5000010B50100D7
:1057A0000148FFF7A3FF10BDE9E50000F0B585B0A3
:1057B00005000C001700FAF7E7FC69460600280010
:1057C000FFF70CFD0500042F23D10098A30715D186
:1057D000114B22689A4211D1210001AA0CF0E8F97C
:1057E000002802D10D480AF0E5FD0199029A300027
:1057F000521A69181DF0D3F805B0F0BD002301005E
:1058000022003000FAF77EFE2B5C01205B0018437B
:10581000F2E70020F0E7C04660A90200650103003E
:1058200070B50A001C008EB0002900D176E018681F
:105830003B4E03003340062B05D0830726D1394B5E
:105840000168994222D1023A012A64D80AA9FFF7D5
:10585000C5FC050020680640062E15D1C00820F0C2
:10586000FAFA0400002C04D128000A990AF0E8FD95
:10587000040010200A9E1DF056FD2B4B866003602D
:10588000C56044600EB070BD4468EBE7012A42D1A8
:1058900003001340DBB2002B10D0441021000AA8F3
:1058A0001EF0BBFF0C9B002122001800019323F087
:1058B00019FA0AA91C48FFF721FCE3E703A91BF02A
:1058C00053FC002805D0049A039917481DF067F887
:1058D000D8E72068FAF756FE1021002800D04110C2
:1058E00006A81EF08AFF20680AA909F04BFF0400F1
:1058F000200009F0A9FF002801D106A9DAE7FAF78C
:1059000027FDFF2802D909480AF060FBC1B206A8AA
:105910001EF0D1FFECE706480AF01EFD0548B1E78E
:10592000070080FFECCF0200AC960200220C0300BF
:105930003B0C03009C96020073B50400080001A90B
:105940001600FFF74BFC0500042E06D10300019A58
:105950002000074920F076FC73BD2000054920F0A7
:10596000ABFB012329002000019AFFF763FBF3E75B
:10597000550C0300717C03000A001A4B73B51A40E2
:1059800005000C000340062B08D1401A062A24D03B
:10599000E80820F060FA0600606805E04668062A1C
:1059A000FAD1C80820F057FA002E05D0002803D0FD
:1059B000B04201D0002076BD69462800FFF70EFCFA
:1059C00001A905002000FFF709FC009A019B0100D6
:1059D0009A42EFD1280023F05BF943425841C0B20C
:1059E000E9E7C046070080FF084B07B50340062BD8
:1059F00008D0830704D10268054B92699A4201D00E
:105A0000FFF7FCFA01A9FFF7E9FB0EBD070080FFD5
:105A1000BD5F00000A4B13B503400C00062B08D0F5
:105A2000830704D10268074B92699A4201D0FFF7BD
:105A3000E5FA01A9FFF7D2FB019B236016BDC04622
:105A4000070080FFBD5F0000F0B59BB00B90059193
:105A5000089210210EAA12A8099306F00DFD059BCD
:105A6000089A934208D30B9A12AB13CB13C21B684C
:105A700013600B981BB0F0BD059B19785F1C7D2946
:105A80000ED1089B9F4208D2059B59787D2904D1ED
:105A900012A81EF010FF059707E0B1480AF096FA29
:105AA0007B2906D012A81EF006FF059B0133059343
:105AB000D5E7089B9F422ED2059B59787B29E7D0DA
:105AC0003B007D2903D0212901D03A2925D1002787
